{
  "_format": "hh-sol-artifact-1",
  "contractName": "Poll",
  "sourceName": "contracts/Poll.sol",
  "abi": [
    {
      "inputs": [
        {
          "internalType": "string",
          "name": "_name",
          "type": "string"
        },
        {
          "internalType": "string[]",
          "name": "_options",
          "type": "string[]"
        }
      ],
      "stateMutability": "nonpayable",
      "type": "constructor"
    },
    {
      "anonymous": false,
      "inputs": [
        {
          "indexed": true,
          "internalType": "uint256",
          "name": "id",
          "type": "uint256"
        },
        {
          "indexed": false,
          "internalType": "string",
          "name": "name",
          "type": "string"
        },
        {
          "indexed": false,
          "internalType": "uint256",
          "name": "voteCount",
          "type": "uint256"
        }
      ],
      "name": "VoteCast",
      "type": "event"
    },
    {
      "inputs": [
        {
          "internalType": "address",
          "name": "",
          "type": "address"
        }
      ],
      "name": "_hasVoted",
      "outputs": [
        {
          "internalType": "bool",
          "name": "",
          "type": "bool"
        }
      ],
      "stateMutability": "view",
      "type": "function"
    },
    {
      "inputs": [
        {
          "internalType": "string",
          "name": "_name",
          "type": "string"
        }
      ],
      "name": "addVoteOption",
      "outputs": [],
      "stateMutability": "nonpayable",
      "type": "function"
    },
    {
      "inputs": [
        {
          "internalType": "uint256",
          "name": "_id",
          "type": "uint256"
        }
      ],
      "name": "castVote",
      "outputs": [],
      "stateMutability": "nonpayable",
      "type": "function"
    },
    {
      "inputs": [],
      "name": "closePoll",
      "outputs": [],
      "stateMutability": "nonpayable",
      "type": "function"
    },
    {
      "inputs": [],
      "name": "getName",
      "outputs": [
        {
          "internalType": "string",
          "name": "",
          "type": "string"
        }
      ],
      "stateMutability": "view",
      "type": "function"
    },
    {
      "inputs": [],
      "name": "getOptions",
      "outputs": [
        {
          "components": [
            {
              "internalType": "uint256",
              "name": "id",
              "type": "uint256"
            },
            {
              "internalType": "string",
              "name": "name",
              "type": "string"
            },
            {
              "internalType": "uint256",
              "name": "voteCount",
              "type": "uint256"
            }
          ],
          "internalType": "struct Poll.Option[]",
          "name": "",
          "type": "tuple[]"
        }
      ],
      "stateMutability": "view",
      "type": "function"
    },
    {
      "inputs": [],
      "name": "getOwner",
      "outputs": [
        {
          "internalType": "address",
          "name": "",
          "type": "address"
        }
      ],
      "stateMutability": "view",
      "type": "function"
    },
    {
      "inputs": [],
      "name": "getTotalVotes",
      "outputs": [
        {
          "internalType": "uint256",
          "name": "",
          "type": "uint256"
        }
      ],
      "stateMutability": "view",
      "type": "function"
    },
    {
      "inputs": [],
      "name": "getWinner",
      "outputs": [
        {
          "components": [
            {
              "internalType": "uint256",
              "name": "id",
              "type": "uint256"
            },
            {
              "internalType": "string",
              "name": "name",
              "type": "string"
            },
            {
              "internalType": "uint256",
              "name": "voteCount",
              "type": "uint256"
            }
          ],
          "internalType": "struct Poll.Option",
          "name": "",
          "type": "tuple"
        }
      ],
      "stateMutability": "view",
      "type": "function"
    },
    {
      "inputs": [],
      "name": "hasVoted",
      "outputs": [
        {
          "internalType": "bool",
          "name": "",
          "type": "bool"
        }
      ],
      "stateMutability": "view",
      "type": "function"
    },
    {
      "inputs": [],
      "name": "isClosed",
      "outputs": [
        {
          "internalType": "bool",
          "name": "",
          "type": "bool"
        }
      ],
      "stateMutability": "view",
      "type": "function"
    },
    {
      "inputs": [
        {
          "internalType": "uint256",
          "name": "",
          "type": "uint256"
        }
      ],
      "name": "options",
      "outputs": [
        {
          "internalType": "uint256",
          "name": "id",
          "type": "uint256"
        },
        {
          "internalType": "string",
          "name": "name",
          "type": "string"
        },
        {
          "internalType": "uint256",
          "name": "voteCount",
          "type": "uint256"
        }
      ],
      "stateMutability": "view",
      "type": "function"
    }
  ],
  "bytecode": "0x60806040523480156200001157600080fd5b50604051620021d6380380620021d68339818101604052810190620000379190620004a3565b336000806101000a81548173ffffffffffffffffffffffffffffffffffffffff021916908373ffffffffffffffffffffffffffffffffffffffff160217905550816001908162000088919062000773565b5060005b8151811015620000da57620000c4828281518110620000b057620000af6200085a565b5b60200260200101516200010660201b60201c565b8080620000d190620008b8565b9150506200008c565b5060006002819055506001600360006101000a81548160ff0219169083151502179055505050620009ae565b60008054906101000a900473ffffffffffffffffffffffffffffffffffffffff1673ffffffffffffffffffffffffffffffffffffffff163373ffffffffffffffffffffffffffffffffffffffff161462000197576040517f08c379a00000000000000000000000000000000000000000000000000000000081526004016200018e906200098c565b60405180910390fd5b6004604051806060016040528060048054905081526020018381526020016000815250908060018154018082558091505060019003906000526020600020906003020160009091909190915060008201518160000155602082015181600101908162000204919062000773565b5060408201518160020155505050565b6000604051905090565b600080fd5b600080fd5b600080fd5b600080fd5b6000601f19601f8301169050919050565b7f4e487b7100000000000000000000000000000000000000000000000000000000600052604160045260246000fd5b6200027d8262000232565b810181811067ffffffffffffffff821117156200029f576200029e62000243565b5b80604052505050565b6000620002b462000214565b9050620002c2828262000272565b919050565b600067ffffffffffffffff821115620002e557620002e462000243565b5b620002f08262000232565b9050602081019050919050565b60005b838110156200031d57808201518184015260208101905062000300565b60008484015250505050565b6000620003406200033a84620002c7565b620002a8565b9050828152602081018484840111156200035f576200035e6200022d565b5b6200036c848285620002fd565b509392505050565b600082601f8301126200038c576200038b62000228565b5b81516200039e84826020860162000329565b91505092915050565b600067ffffffffffffffff821115620003c557620003c462000243565b5b602082029050602081019050919050565b600080fd5b6000620003f2620003ec84620003a7565b620002a8565b90508083825260208201905060208402830185811115620004185762000417620003d6565b5b835b818110156200046657805167ffffffffffffffff81111562000441576200044062000228565b5b80860162000450898262000374565b855260208501945050506020810190506200041a565b5050509392505050565b600082601f83011262000488576200048762000228565b5b81516200049a848260208601620003db565b91505092915050565b60008060408385031215620004bd57620004bc6200021e565b5b600083015167ffffffffffffffff811115620004de57620004dd62000223565b5b620004ec8582860162000374565b925050602083015167ffffffffffffffff81111562000510576200050f62000223565b5b6200051e8582860162000470565b9150509250929050565b600081519050919050565b7f4e487b7100000000000000000000000000000000000000000000000000000000600052602260045260246000fd5b600060028204905060018216806200057b57607f821691505b60208210810362000591576200059062000533565b5b50919050565b60008190508160005260206000209050919050565b60006020601f8301049050919050565b600082821b905092915050565b600060088302620005fb7fffffffffffffffffffffffffffffffffffffffffffffffffffffffffffffffff82620005bc565b620006078683620005bc565b95508019841693508086168417925050509392505050565b6000819050919050565b6000819050919050565b6000620006546200064e62000648846200061f565b62000629565b6200061f565b9050919050565b6000819050919050565b620006708362000633565b620006886200067f826200065b565b848454620005c9565b825550505050565b600090565b6200069f62000690565b620006ac81848462000665565b505050565b5b81811015620006d457620006c860008262000695565b600181019050620006b2565b5050565b601f8211156200072357620006ed8162000597565b620006f884620005ac565b8101602085101562000708578190505b620007206200071785620005ac565b830182620006b1565b50505b505050565b600082821c905092915050565b6000620007486000198460080262000728565b1980831691505092915050565b600062000763838362000735565b9150826002028217905092915050565b6200077e8262000528565b67ffffffffffffffff8111156200079a576200079962000243565b5b620007a6825462000562565b620007b3828285620006d8565b600060209050601f831160018114620007eb5760008415620007d6578287015190505b620007e2858262000755565b86555062000852565b601f198416620007fb8662000597565b60005b828110156200082557848901518255600182019150602085019450602081019050620007fe565b8683101562000845578489015162000841601f89168262000735565b8355505b6001600288020188555050505b505050505050565b7f4e487b7100000000000000000000000000000000000000000000000000000000600052603260045260246000fd5b7f4e487b7100000000000000000000000000000000000000000000000000000000600052601160045260246000fd5b6000620008c5826200061f565b91507fffffffffffffffffffffffffffffffffffffffffffffffffffffffffffffffff8203620008fa57620008f962000889565b5b600182019050919050565b600082825260208201905092915050565b7f4f6e6c7920746865206f776e65722063616e2063616c6c20746869732066756e60008201527f6374696f6e000000000000000000000000000000000000000000000000000000602082015250565b60006200097460258362000905565b9150620009818262000916565b604082019050919050565b60006020820190508181036000830152620009a78162000965565b9050919050565b61181880620009be6000396000f3fe608060405234801561001057600080fd5b50600436106100b45760003560e01c80639a0e7d66116100715780639a0e7d661461017f578063a3e022aa1461019d578063b94617d5146101cd578063c2b6b58c146101e9578063cc2ee19614610207578063ed8c2aed14610225576100b4565b806317d7de7c146100b95780633eb76b9c146100d7578063409e2205146100f35780636482133814610125578063893d20e8146101435780638e7ea5b214610161575b600080fd5b6100c161022f565b6040516100ce9190610bd9565b60405180910390f35b6100f160048036038101906100ec9190610c45565b6102c1565b005b61010d60048036038101906101089190610c45565b610531565b60405161011c93929190610c81565b60405180910390f35b61012d6105f3565b60405161013a9190610cda565b60405180910390f35b61014b610647565b6040516101589190610d36565b60405180910390f35b610169610670565b6040516101769190610dfa565b60405180910390f35b610187610828565b6040516101949190610e1c565b60405180910390f35b6101b760048036038101906101b29190610e63565b610832565b6040516101c49190610cda565b60405180910390f35b6101e760048036038101906101e29190610fc5565b610852565b005b6101f161095b565b6040516101fe9190610cda565b60405180910390f35b61020f610978565b60405161021c9190611120565b60405180910390f35b61022d610a7d565b005b60606001805461023e90611171565b80601f016020809104026020016040519081016040528092919081815260200182805461026a90611171565b80156102b75780601f1061028c576101008083540402835291602001916102b7565b820191906000526020600020905b81548152906001019060200180831161029a57829003601f168201915b5050505050905090565b60001515600560003373ffffffffffffffffffffffffffffffffffffffff1673ffffffffffffffffffffffffffffffffffffffff16815260200190815260200160002060009054906101000a900460ff16151514610354576040517f08c379a000000000000000000000000000000000000000000000000000000000815260040161034b90611214565b60405180910390fd5b60011515600360009054906101000a900460ff161515146103aa576040517f08c379a00000000000000000000000000000000000000000000000000000000081526004016103a190611280565b60405180910390fd5b80600081101580156103c0575060048054905081105b6103ff576040517f08c379a00000000000000000000000000000000000000000000000000000000081526004016103f6906112ec565b60405180910390fd5b600482815481106104135761041261130c565b5b906000526020600020906003020160020160008154809291906104359061136a565b91905055506001600560003373ffffffffffffffffffffffffffffffffffffffff1673ffffffffffffffffffffffffffffffffffffffff16815260200190815260200160002060006101000a81548160ff021916908315150217905550600260008154809291906104a59061136a565b9190505550817f7443492b9be7d0c78915e97bcabcb827676bf0292f1b78d919b33ca1a881a66b600484815481106104e0576104df61130c565b5b9060005260206000209060030201600101600485815481106105055761050461130c565b5b90600052602060002090600302016002015460405161052592919061144b565b60405180910390a25050565b6004818154811061054157600080fd5b906000526020600020906003020160009150905080600001549080600101805461056a90611171565b80601f016020809104026020016040519081016040528092919081815260200182805461059690611171565b80156105e35780601f106105b8576101008083540402835291602001916105e3565b820191906000526020600020905b8154815290600101906020018083116105c657829003601f168201915b5050505050908060020154905083565b6000600560003373ffffffffffffffffffffffffffffffffffffffff1673ffffffffffffffffffffffffffffffffffffffff16815260200190815260200160002060009054906101000a900460ff16905090565b60008060009054906101000a900473ffffffffffffffffffffffffffffffffffffffff16905090565b610678610b28565b60001515600360009054906101000a900460ff161515146106ce576040517f08c379a00000000000000000000000000000000000000000000000000000000081526004016106c5906114c7565b60405180910390fd5b60008060005b60048054905081101561074d5782600482815481106106f6576106f561130c565b5b906000526020600020906003020160020154111561073a57600481815481106107225761072161130c565b5b90600052602060002090600302016002015492508091505b80806107459061136a565b9150506106d4565b50600481815481106107625761076161130c565b5b90600052602060002090600302016040518060600160405290816000820154815260200160018201805461079590611171565b80601f01602080910402602001604051908101604052809291908181526020018280546107c190611171565b801561080e5780601f106107e35761010080835404028352916020019161080e565b820191906000526020600020905b8154815290600101906020018083116107f157829003601f168201915b505050505081526020016002820154815250509250505090565b6000600254905090565b60056020528060005260406000206000915054906101000a900460ff1681565b60008054906101000a900473ffffffffffffffffffffffffffffffffffffffff1673ffffffffffffffffffffffffffffffffffffffff163373ffffffffffffffffffffffffffffffffffffffff16146108e0576040517f08c379a00000000000000000000000000000000000000000000000000000000081526004016108d790611559565b60405180910390fd5b6004604051806060016040528060048054905081526020018381526020016000815250908060018154018082558091505060019003906000526020600020906003020160009091909190915060008201518160000155602082015181600101908161094b9190611710565b5060408201518160020155505050565b6000801515600360009054906101000a900460ff16151514905090565b60606004805480602002602001604051908101604052809291908181526020016000905b82821015610a745783829060005260206000209060030201604051806060016040529081600082015481526020016001820180546109d990611171565b80601f0160208091040260200160405190810160405280929190818152602001828054610a0590611171565b8015610a525780601f10610a2757610100808354040283529160200191610a52565b820191906000526020600020905b815481529060010190602001808311610a3557829003601f168201915b505050505081526020016002820154815250508152602001906001019061099c565b50505050905090565b60008054906101000a900473ffffffffffffffffffffffffffffffffffffffff1673ffffffffffffffffffffffffffffffffffffffff163373ffffffffffffffffffffffffffffffffffffffff1614610b0b576040517f08c379a0000000000000000000000000000000000000000000000000000000008152600401610b0290611559565b60405180910390fd5b6000600360006101000a81548160ff021916908315150217905550565b60405180606001604052806000815260200160608152602001600081525090565b600081519050919050565b600082825260208201905092915050565b60005b83811015610b83578082015181840152602081019050610b68565b60008484015250505050565b6000601f19601f8301169050919050565b6000610bab82610b49565b610bb58185610b54565b9350610bc5818560208601610b65565b610bce81610b8f565b840191505092915050565b60006020820190508181036000830152610bf38184610ba0565b905092915050565b6000604051905090565b600080fd5b600080fd5b6000819050919050565b610c2281610c0f565b8114610c2d57600080fd5b50565b600081359050610c3f81610c19565b92915050565b600060208284031215610c5b57610c5a610c05565b5b6000610c6984828501610c30565b91505092915050565b610c7b81610c0f565b82525050565b6000606082019050610c966000830186610c72565b8181036020830152610ca88185610ba0565b9050610cb76040830184610c72565b949350505050565b60008115159050919050565b610cd481610cbf565b82525050565b6000602082019050610cef6000830184610ccb565b92915050565b600073ffffffffffffffffffffffffffffffffffffffff82169050919050565b6000610d2082610cf5565b9050919050565b610d3081610d15565b82525050565b6000602082019050610d4b6000830184610d27565b92915050565b610d5a81610c0f565b82525050565b600082825260208201905092915050565b6000610d7c82610b49565b610d868185610d60565b9350610d96818560208601610b65565b610d9f81610b8f565b840191505092915050565b6000606083016000830151610dc26000860182610d51565b5060208301518482036020860152610dda8282610d71565b9150506040830151610def6040860182610d51565b508091505092915050565b60006020820190508181036000830152610e148184610daa565b905092915050565b6000602082019050610e316000830184610c72565b92915050565b610e4081610d15565b8114610e4b57600080fd5b50565b600081359050610e5d81610e37565b92915050565b600060208284031215610e7957610e78610c05565b5b6000610e8784828501610e4e565b91505092915050565b600080fd5b600080fd5b7f4e487b7100000000000000000000000000000000000000000000000000000000600052604160045260246000fd5b610ed282610b8f565b810181811067ffffffffffffffff82111715610ef157610ef0610e9a565b5b80604052505050565b6000610f04610bfb565b9050610f108282610ec9565b919050565b600067ffffffffffffffff821115610f3057610f2f610e9a565b5b610f3982610b8f565b9050602081019050919050565b82818337600083830152505050565b6000610f68610f6384610f15565b610efa565b905082815260208101848484011115610f8457610f83610e95565b5b610f8f848285610f46565b509392505050565b600082601f830112610fac57610fab610e90565b5b8135610fbc848260208601610f55565b91505092915050565b600060208284031215610fdb57610fda610c05565b5b600082013567ffffffffffffffff811115610ff957610ff8610c0a565b5b61100584828501610f97565b91505092915050565b600081519050919050565b600082825260208201905092915050565b6000819050602082019050919050565b60006060830160008301516110526000860182610d51565b506020830151848203602086015261106a8282610d71565b915050604083015161107f6040860182610d51565b508091505092915050565b6000611096838361103a565b905092915050565b6000602082019050919050565b60006110b68261100e565b6110c08185611019565b9350836020820285016110d28561102a565b8060005b8581101561110e57848403895281516110ef858261108a565b94506110fa8361109e565b925060208a019950506001810190506110d6565b50829750879550505050505092915050565b6000602082019050818103600083015261113a81846110ab565b905092915050565b7f4e487b7100000000000000000000000000000000000000000000000000000000600052602260045260246000fd5b6000600282049050600182168061118957607f821691505b60208210810361119c5761119b611142565b5b50919050565b7f596f75206861766520616c726561647920766f74656420696e2074686973207060008201527f6f6c6c0000000000000000000000000000000000000000000000000000000000602082015250565b60006111fe602383610b54565b9150611209826111a2565b604082019050919050565b6000602082019050818103600083015261122d816111f1565b9050919050565b7f506f6c6c20697320636c6f736564000000000000000000000000000000000000600082015250565b600061126a600e83610b54565b915061127582611234565b602082019050919050565b600060208201905081810360008301526112998161125d565b9050919050565b7f496e76616c696420766f7465206f7074696f6e2073656c656374656400000000600082015250565b60006112d6601c83610b54565b91506112e1826112a0565b602082019050919050565b60006020820190508181036000830152611305816112c9565b9050919050565b7f4e487b7100000000000000000000000000000000000000000000000000000000600052603260045260246000fd5b7f4e487b7100000000000000000000000000000000000000000000000000000000600052601160045260246000fd5b600061137582610c0f565b91507fffffffffffffffffffffffffffffffffffffffffffffffffffffffffffffffff82036113a7576113a661133b565b5b600182019050919050565b60008190508160005260206000209050919050565b600081546113d481611171565b6113de8186610b54565b945060018216600081146113f9576001811461140f57611442565b60ff198316865281151560200286019350611442565b611418856113b2565b60005b8381101561143a5781548189015260018201915060208101905061141b565b808801955050505b50505092915050565b6000604082019050818103600083015261146581856113c7565b90506114746020830184610c72565b9392505050565b7f506f6c6c206973206f70656e0000000000000000000000000000000000000000600082015250565b60006114b1600c83610b54565b91506114bc8261147b565b602082019050919050565b600060208201905081810360008301526114e0816114a4565b9050919050565b7f4f6e6c7920746865206f776e65722063616e2063616c6c20746869732066756e60008201527f6374696f6e000000000000000000000000000000000000000000000000000000602082015250565b6000611543602583610b54565b915061154e826114e7565b604082019050919050565b6000602082019050818103600083015261157281611536565b9050919050565b60006020601f8301049050919050565b600082821b905092915050565b6000600883026115c67fffffffffffffffffffffffffffffffffffffffffffffffffffffffffffffffff82611589565b6115d08683611589565b95508019841693508086168417925050509392505050565b6000819050919050565b600061160d61160861160384610c0f565b6115e8565b610c0f565b9050919050565b6000819050919050565b611627836115f2565b61163b61163382611614565b848454611596565b825550505050565b600090565b611650611643565b61165b81848461161e565b505050565b5b8181101561167f57611674600082611648565b600181019050611661565b5050565b601f8211156116c457611695816113b2565b61169e84611579565b810160208510156116ad578190505b6116c16116b985611579565b830182611660565b50505b505050565b600082821c905092915050565b60006116e7600019846008026116c9565b1980831691505092915050565b600061170083836116d6565b9150826002028217905092915050565b61171982610b49565b67ffffffffffffffff81111561173257611731610e9a565b5b61173c8254611171565b611747828285611683565b600060209050601f83116001811461177a5760008415611768578287015190505b61177285826116f4565b8655506117da565b601f198416611788866113b2565b60005b828110156117b05784890151825560018201915060208501945060208101905061178b565b868310156117cd57848901516117c9601f8916826116d6565b8355505b6001600288020188555050505b50505050505056fea26469706673582212205997492a0534e768ece540775d9412324844917a2f9517f56e19de2f04ef45bb64736f6c63430008130033",
  "linkReferences": {},
  "deployedLinkReferences": {}
}